{
  "contractName": "SafeCastMock",
  "abi": [
    {
      "constant": true,
      "inputs": [
        {
          "internalType": "uint256",
          "name": "a",
          "type": "uint256"
        }
      ],
      "name": "toUint128",
      "outputs": [
        {
          "internalType": "uint128",
          "name": "",
          "type": "uint128"
        }
      ],
      "payable": false,
      "stateMutability": "pure",
      "type": "function"
    },
    {
      "constant": true,
      "inputs": [
        {
          "internalType": "uint256",
          "name": "a",
          "type": "uint256"
        }
      ],
      "name": "toUint64",
      "outputs": [
        {
          "internalType": "uint64",
          "name": "",
          "type": "uint64"
        }
      ],
      "payable": false,
      "stateMutability": "pure",
      "type": "function"
    },
    {
      "constant": true,
      "inputs": [
        {
          "internalType": "uint256",
          "name": "a",
          "type": "uint256"
        }
      ],
      "name": "toUint32",
      "outputs": [
        {
          "internalType": "uint32",
          "name": "",
          "type": "uint32"
        }
      ],
      "payable": false,
      "stateMutability": "pure",
      "type": "function"
    },
    {
      "constant": true,
      "inputs": [
        {
          "internalType": "uint256",
          "name": "a",
          "type": "uint256"
        }
      ],
      "name": "toUint16",
      "outputs": [
        {
          "internalType": "uint16",
          "name": "",
          "type": "uint16"
        }
      ],
      "payable": false,
      "stateMutability": "pure",
      "type": "function"
    },
    {
      "constant": true,
      "inputs": [
        {
          "internalType": "uint256",
          "name": "a",
          "type": "uint256"
        }
      ],
      "name": "toUint8",
      "outputs": [
        {
          "internalType": "uint8",
          "name": "",
          "type": "uint8"
        }
      ],
      "payable": false,
      "stateMutability": "pure",
      "type": "function"
    }
  ],
  "bytecode": "0x608060405234801561001057600080fd5b50610553806100206000396000f3fe608060405234801561001057600080fd5b50600436106100575760003560e01c80630cc4681e1461005c5780632665fad0146100a4578063809fdd33146100fa5780639374068f14610160578063c8193255146101aa575b600080fd5b6100886004803603602081101561007257600080fd5b81019080803590602001909291905050506101f8565b604051808260ff1660ff16815260200191505060405180910390f35b6100d0600480360360208110156100ba57600080fd5b810190808035906020019092919050505061020a565b604051808267ffffffffffffffff1667ffffffffffffffff16815260200191505060405180910390f35b6101266004803603602081101561011057600080fd5b810190808035906020019092919050505061021c565b60405180826fffffffffffffffffffffffffffffffff166fffffffffffffffffffffffffffffffff16815260200191505060405180910390f35b61018c6004803603602081101561017657600080fd5b810190808035906020019092919050505061022e565b604051808261ffff1661ffff16815260200191505060405180910390f35b6101d6600480360360208110156101c057600080fd5b8101908080359060200190929190505050610240565b604051808263ffffffff1663ffffffff16815260200191505060405180910390f35b600061020382610252565b9050919050565b6000610215826102b6565b9050919050565b600061022782610321565b9050919050565b600061023982610394565b9050919050565b600061024b826103f9565b9050919050565b600061010082106102ae576040517f08c379a00000000000000000000000000000000000000000000000000000000081526004018080602001828103825260258152602001806104876025913960400191505060405180910390fd5b819050919050565b6000680100000000000000008210610319576040517f08c379a00000000000000000000000000000000000000000000000000000000081526004018080602001828103825260268152602001806104d36026913960400191505060405180910390fd5b819050919050565b6000700100000000000000000000000000000000821061038c576040517f08c379a00000000000000000000000000000000000000000000000000000000081526004018080602001828103825260278152602001806104ac6027913960400191505060405180910390fd5b819050919050565b60006201000082106103f1576040517f08c379a00000000000000000000000000000000000000000000000000000000081526004018080602001828103825260268152602001806104616026913960400191505060405180910390fd5b819050919050565b60006401000000008210610458576040517f08c379a00000000000000000000000000000000000000000000000000000000081526004018080602001828103825260268152602001806104f96026913960400191505060405180910390fd5b81905091905056fe53616665436173743a2076616c756520646f65736e27742066697420696e203136206269747353616665436173743a2076616c756520646f65736e27742066697420696e2038206269747353616665436173743a2076616c756520646f65736e27742066697420696e20313238206269747353616665436173743a2076616c756520646f65736e27742066697420696e203634206269747353616665436173743a2076616c756520646f65736e27742066697420696e2033322062697473a265627a7a72315820d2409382ea2f8d48d2f35810502d38e8e830e8364a1fa00396a3814fecfdf00e64736f6c634300050c0032",
  "source": "pragma solidity ^0.5.0;\n\nimport \"../utils/SafeCast.sol\";\n\ncontract SafeCastMock {\n    using SafeCast for uint;\n\n    function toUint128(uint a) public pure returns (uint128) {\n        return a.toUint128();\n    }\n\n    function toUint64(uint a) public pure returns (uint64) {\n        return a.toUint64();\n    }\n\n    function toUint32(uint a) public pure returns (uint32) {\n        return a.toUint32();\n    }\n\n    function toUint16(uint a) public pure returns (uint16) {\n        return a.toUint16();\n    }\n\n    function toUint8(uint a) public pure returns (uint8) {\n        return a.toUint8();\n    }\n}\n",
  "sourcePath": "C:/Users/Gayardo/Desktop/monnaieWork/ERC721/contracts/mocks/SafeCastMock.sol",
  "compiler": {
    "name": "solc",
    "version": "0.5.12+commit.7709ece9.Emscripten.clang"
  },
  "schemaVersion": "3.0.19",
  "updatedAt": "2019-11-28T18:41:28.095Z",
  "devdoc": {
    "methods": {}
  },
  "userdoc": {
    "methods": {}
  }
}