{
  "contractName": "SignedSafeMathMock",
  "abi": [
    {
      "constant": true,
      "inputs": [
        {
          "internalType": "int256",
          "name": "a",
          "type": "int256"
        },
        {
          "internalType": "int256",
          "name": "b",
          "type": "int256"
        }
      ],
      "name": "mul",
      "outputs": [
        {
          "internalType": "int256",
          "name": "",
          "type": "int256"
        }
      ],
      "payable": false,
      "stateMutability": "pure",
      "type": "function"
    },
    {
      "constant": true,
      "inputs": [
        {
          "internalType": "int256",
          "name": "a",
          "type": "int256"
        },
        {
          "internalType": "int256",
          "name": "b",
          "type": "int256"
        }
      ],
      "name": "div",
      "outputs": [
        {
          "internalType": "int256",
          "name": "",
          "type": "int256"
        }
      ],
      "payable": false,
      "stateMutability": "pure",
      "type": "function"
    },
    {
      "constant": true,
      "inputs": [
        {
          "internalType": "int256",
          "name": "a",
          "type": "int256"
        },
        {
          "internalType": "int256",
          "name": "b",
          "type": "int256"
        }
      ],
      "name": "sub",
      "outputs": [
        {
          "internalType": "int256",
          "name": "",
          "type": "int256"
        }
      ],
      "payable": false,
      "stateMutability": "pure",
      "type": "function"
    },
    {
      "constant": true,
      "inputs": [
        {
          "internalType": "int256",
          "name": "a",
          "type": "int256"
        },
        {
          "internalType": "int256",
          "name": "b",
          "type": "int256"
        }
      ],
      "name": "add",
      "outputs": [
        {
          "internalType": "int256",
          "name": "",
          "type": "int256"
        }
      ],
      "payable": false,
      "stateMutability": "pure",
      "type": "function"
    }
  ],
  "bytecode": "0x608060405234801561001057600080fd5b5061060d806100206000396000f3fe608060405234801561001057600080fd5b506004361061004c5760003560e01c80634350913814610051578063a5f3c23b1461009d578063adefc37b146100e9578063bbe93d9114610135575b600080fd5b6100876004803603604081101561006757600080fd5b810190808035906020019092919080359060200190929190505050610181565b6040518082815260200191505060405180910390f35b6100d3600480360360408110156100b357600080fd5b810190808035906020019092919080359060200190929190505050610195565b6040518082815260200191505060405180910390f35b61011f600480360360408110156100ff57600080fd5b8101908080359060200190929190803590602001909291905050506101a9565b6040518082815260200191505060405180910390f35b61016b6004803603604081101561014b57600080fd5b8101908080359060200190929190803590602001909291905050506101bd565b6040518082815260200191505060405180910390f35b600061018d83836101d1565b905092915050565b60006101a18383610305565b905092915050565b60006101b58383610393565b905092915050565b60006101c98383610421565b905092915050565b600080821415610249576040517f08c379a00000000000000000000000000000000000000000000000000000000081526004018080602001828103825260208152602001807f5369676e6564536166654d6174683a206469766973696f6e206279207a65726f81525060200191505060405180910390fd5b7fffffffffffffffffffffffffffffffffffffffffffffffffffffffffffffffff8214801561029757507f800000000000000000000000000000000000000000000000000000000000000083145b156102ed576040517f08c379a000000000000000000000000000000000000000000000000000000000815260040180806020018281038252602181526020018061056d6021913960400191505060405180910390fd5b60008284816102f857fe5b0590508091505092915050565b60008082840190506000831215801561031e5750838112155b80610334575060008312801561033357508381125b5b610389576040517f08c379a000000000000000000000000000000000000000000000000000000000815260040180806020018281038252602181526020018061054c6021913960400191505060405180910390fd5b8091505092915050565b6000808284039050600083121580156103ac5750838113155b806103c257506000831280156103c157508381135b5b610417576040517f08c379a00000000000000000000000000000000000000000000000000000000081526004018080602001828103825260248152602001806105b56024913960400191505060405180910390fd5b8091505092915050565b6000808314156104345760009050610545565b7fffffffffffffffffffffffffffffffffffffffffffffffffffffffffffffffff8314801561048257507f800000000000000000000000000000000000000000000000000000000000000082145b156104d8576040517f08c379a000000000000000000000000000000000000000000000000000000000815260040180806020018281038252602781526020018061058e6027913960400191505060405180910390fd5b60008284029050828482816104e957fe5b0514610540576040517f08c379a000000000000000000000000000000000000000000000000000000000815260040180806020018281038252602781526020018061058e6027913960400191505060405180910390fd5b809150505b9291505056fe5369676e6564536166654d6174683a206164646974696f6e206f766572666c6f775369676e6564536166654d6174683a206469766973696f6e206f766572666c6f775369676e6564536166654d6174683a206d756c7469706c69636174696f6e206f766572666c6f775369676e6564536166654d6174683a207375627472616374696f6e206f766572666c6f77a265627a7a72315820a6f6d6da0a10a986a07c357ea17c956b9051466b2fec4165b9d4e70031620a6864736f6c634300050c0032",
  "source": "pragma solidity ^0.5.0;\n\nimport \"../drafts/SignedSafeMath.sol\";\n\ncontract SignedSafeMathMock {\n    function mul(int256 a, int256 b) public pure returns (int256) {\n        return SignedSafeMath.mul(a, b);\n    }\n\n    function div(int256 a, int256 b) public pure returns (int256) {\n        return SignedSafeMath.div(a, b);\n    }\n\n    function sub(int256 a, int256 b) public pure returns (int256) {\n        return SignedSafeMath.sub(a, b);\n    }\n\n    function add(int256 a, int256 b) public pure returns (int256) {\n        return SignedSafeMath.add(a, b);\n    }\n}\n",
  "sourcePath": "C:/Users/Gayardo/Desktop/monnaieWork/ERC721/contracts/mocks/SignedSafeMathMock.sol",
  "compiler": {
    "name": "solc",
    "version": "0.5.12+commit.7709ece9.Emscripten.clang"
  },
  "schemaVersion": "3.0.19",
  "updatedAt": "2019-11-28T18:41:28.113Z",
  "devdoc": {
    "methods": {}
  },
  "userdoc": {
    "methods": {}
  }
}