{
  "contractName": "WhitelistAdminRole",
  "abi": [
    {
      "anonymous": false,
      "inputs": [
        {
          "indexed": true,
          "internalType": "address",
          "name": "account",
          "type": "address"
        }
      ],
      "name": "WhitelistAdminAdded",
      "type": "event"
    },
    {
      "anonymous": false,
      "inputs": [
        {
          "indexed": true,
          "internalType": "address",
          "name": "account",
          "type": "address"
        }
      ],
      "name": "WhitelistAdminRemoved",
      "type": "event"
    },
    {
      "constant": true,
      "inputs": [
        {
          "internalType": "address",
          "name": "account",
          "type": "address"
        }
      ],
      "name": "isWhitelistAdmin",
      "outputs": [
        {
          "internalType": "bool",
          "name": "",
          "type": "bool"
        }
      ],
      "payable": false,
      "stateMutability": "view",
      "type": "function"
    },
    {
      "constant": false,
      "inputs": [
        {
          "internalType": "address",
          "name": "account",
          "type": "address"
        }
      ],
      "name": "addWhitelistAdmin",
      "outputs": [],
      "payable": false,
      "stateMutability": "nonpayable",
      "type": "function"
    },
    {
      "constant": false,
      "inputs": [],
      "name": "renounceWhitelistAdmin",
      "outputs": [],
      "payable": false,
      "stateMutability": "nonpayable",
      "type": "function"
    }
  ],
  "bytecode": "0x608060405261057a806100136000396000f3fe608060405234801561001057600080fd5b50600436106100415760003560e01c80634c5a628c146100465780637362d9c814610050578063bb5f747b14610094575b600080fd5b61004e6100f0565b005b6100926004803603602081101561006657600080fd5b81019080803573ffffffffffffffffffffffffffffffffffffffff169060200190929190505050610102565b005b6100d6600480360360208110156100aa57600080fd5b81019080803573ffffffffffffffffffffffffffffffffffffffff169060200190929190505050610173565b604051808215151515815260200191505060405180910390f35b6101006100fb610190565b610198565b565b61011261010d610190565b610173565b610167576040517f08c379a00000000000000000000000000000000000000000000000000000000081526004018080602001828103825260408152602001806105066040913960400191505060405180910390fd5b610170816101f2565b50565b600061018982600061024c90919063ffffffff16565b9050919050565b600033905090565b6101ac81600061032a90919063ffffffff16565b8073ffffffffffffffffffffffffffffffffffffffff167f0a8eb35e5ca14b3d6f28e4abf2f128dbab231a58b56e89beb5d636115001e16560405160405180910390a250565b6102068160006103e790919063ffffffff16565b8073ffffffffffffffffffffffffffffffffffffffff167f22380c05984257a1cb900161c713dd71d39e74820f1aea43bd3f1bdd2096129960405160405180910390a250565b60008073ffffffffffffffffffffffffffffffffffffffff168273ffffffffffffffffffffffffffffffffffffffff1614156102d3576040517f08c379a00000000000000000000000000000000000000000000000000000000081526004018080602001828103825260228152602001806104e46022913960400191505060405180910390fd5b8260000160008373ffffffffffffffffffffffffffffffffffffffff1673ffffffffffffffffffffffffffffffffffffffff16815260200190815260200160002060009054906101000a900460ff16905092915050565b610334828261024c565b610389576040517f08c379a00000000000000000000000000000000000000000000000000000000081526004018080602001828103825260218152602001806104c36021913960400191505060405180910390fd5b60008260000160008373ffffffffffffffffffffffffffffffffffffffff1673ffffffffffffffffffffffffffffffffffffffff16815260200190815260200160002060006101000a81548160ff0219169083151502179055505050565b6103f1828261024c565b15610464576040517f08c379a000000000000000000000000000000000000000000000000000000000815260040180806020018281038252601f8152602001807f526f6c65733a206163636f756e7420616c72656164792068617320726f6c650081525060200191505060405180910390fd5b60018260000160008373ffffffffffffffffffffffffffffffffffffffff1673ffffffffffffffffffffffffffffffffffffffff16815260200190815260200160002060006101000a81548160ff021916908315150217905550505056fe526f6c65733a206163636f756e7420646f6573206e6f74206861766520726f6c65526f6c65733a206163636f756e7420697320746865207a65726f206164647265737357686974656c69737441646d696e526f6c653a2063616c6c657220646f6573206e6f742068617665207468652057686974656c69737441646d696e20726f6c65a265627a7a723158206e7f76688d6ce775de3cdef28a2a84ae584faf55c75e1e8eabef2ca8de8ae79364736f6c634300050c0032",
  "source": "pragma solidity ^0.5.0;\n\nimport \"../../GSN/Context.sol\";\nimport \"../Roles.sol\";\n\n/**\n * @title WhitelistAdminRole\n * @dev WhitelistAdmins are responsible for assigning and removing Whitelisted accounts.\n */\ncontract WhitelistAdminRole is Context {\n    using Roles for Roles.Role;\n\n    event WhitelistAdminAdded(address indexed account);\n    event WhitelistAdminRemoved(address indexed account);\n\n    Roles.Role private _whitelistAdmins;\n\n    //constructor () internal {\n    //    _addWhitelistAdmin(_msgSender());\n    //}\n\n    modifier onlyWhitelistAdmin() {\n        require(isWhitelistAdmin(_msgSender()), \"WhitelistAdminRole: caller does not have the WhitelistAdmin role\");\n        _;\n    }\n\n    function isWhitelistAdmin(address account) public view returns (bool) {\n        return _whitelistAdmins.has(account);\n    }\n\n    function addWhitelistAdmin(address account) public onlyWhitelistAdmin {\n        _addWhitelistAdmin(account);\n    }\n\n    function renounceWhitelistAdmin() public {\n        _removeWhitelistAdmin(_msgSender());\n    }\n\n    function _addWhitelistAdmin(address account) internal {\n        _whitelistAdmins.add(account);\n        emit WhitelistAdminAdded(account);\n    }\n\n    function _removeWhitelistAdmin(address account) internal {\n        _whitelistAdmins.remove(account);\n        emit WhitelistAdminRemoved(account);\n    }\n}\n",
  "sourcePath": "C:\\Users\\Gayardo\\Desktop\\monnaieWork\\ERC721\\contracts\\access\\roles\\WhitelistAdminRole.sol",
  "compiler": {
    "name": "solc",
    "version": "0.5.12+commit.7709ece9.Emscripten.clang"
  },
  "schemaVersion": "3.0.19",
  "updatedAt": "2019-11-30T22:09:07.911Z",
  "devdoc": {
    "details": "WhitelistAdmins are responsible for assigning and removing Whitelisted accounts.",
    "methods": {},
    "title": "WhitelistAdminRole"
  },
  "userdoc": {
    "methods": {}
  }
}